:020000040000FA
:1000000088FE00208D040000950400009704000085
:10001000990400009B0400009D0400000000000003
:100020000000000000000000000000009F0400002D
:100030000000000000000000A1040000A304000074
:10004000A5040000A5040000A5040000AD130000F5
:10005000B9130000A50400005D0A0000990B000020
:10006000F515000049160000A5040000A5040000D5
:10007000A5040000A5040000A5040000A5040000DC
:10008000A5040000A5040000A5040000A5040000CC
:10009000C5130000A5040000A5040000A50400008D
:1000A000A5040000A5040000A5040000A5040000AC
:1000B000A5040000A50400000000000000000000EE
:1000C000A5040000A5040000A5040000A50400008C
:1000D000A5040000A50400000000000000000000CE
:1000E0000000000000000000000000000000000010
:1000F0000000000000000000000000000000000000
:1001000000000000000000000000000000000000EF
:1001100000000000000000000000000000000000DF
:10040000DFF80CD000F08AFA004800473D310000C8
:1004100088FE0020401E00BF00BF00BF00BF00BF1D
:1004200000BF00BF00BF00BF00BF00BF00BF00BFD4
:1004300000BF00BF00BF00BF00BF00BF00BF00BFC4
:1004400000BF00BF00BF00BF00BF00BF00BF00BFB4
:1004500000BF00BF00BF00BF00BF00BF00BF00BFA4
:1004600000BF00BF00BF00BF00BF00BF00BF00BF94
:1004700000BF00BF00BF00BF00BF00BF00BF00BF84
:1004800000BF00BF00BFC5D17047000006488047CD
:1004900006480047FEE7FEE7FEE7FEE7FEE7FEE769
:1004A000FEE7FEE7FEE700007D1400000104000007
:1004B00040EA01039B0703D009E008C9121F08C0E6
:1004C000042AFAD203E011F8013B00F8013B521E66
:1004D000F9D27047D2B201E000F8012B491EFBD2DD
:1004E00070470022F6E710B513460A46044619463F
:1004F000FFF7F0FF204610BD00F0004230F0004052
:100500000AD0C10D01F56071C0F3160042EA015135
:10051000C20840071143704700200146704730B5BC
:100520000B46014600202022012409E021FA02F5B1
:100530009D4205D303FA02F5491B04FA02F528444B
:10054000151EA2F10102F1DC30BD2DE9F05F054678
:10055000002092469B4688460646814640241BE082
:10056000284641464746224600F0F9F953465A4686
:10057000C01A914110D311461846224600F0E0F906
:100580002D1A67EB01084F4622460120002100F09A
:10059000D7F917EB00094E41201EA4F10104DFDC5E
:1005A000484631462A464346BDE8F09F2DE9FE4FB6
:1005B000804681EA0300C00F0C46009021F0004104
:1005C00023F00045B8EB0200A94105D24046214680
:1005D00090461C460B46024623F00040104347D08D
:1005E000270DC7F30A00C3F30A510290401A019085
:1005F00040286BDAC3F3130040F4801B0098924646
:1006000020B10023D2EB030A63EB0B0B0198594690
:10061000C0F14002504600F093F906460D465046A0
:100620005946019A00F0ABF910EB08006141002433
:1006300087EA115284EAE7731A4340D0009A62B302
:10064000019A012A4FEA075215DC001B61EB0201F7
:100650004FF0004202EA0752CDE90042001C41F58A
:10066000801132462B4600F0ABF903B0BDE8F08FA5
:1006700040462146F9E7001B61EB0201001C41F5F1
:10068000801300185B412018A2F5001747EB030107
:1006900040EAD570B6196D4111E06D084FEA360693
:1006A00045EAC0754FEA0752001B61EB0201001CCE
:1006B00041F5801149084FEA300000195141324696
:1006C0002B4603B0BDE8F04F00F06BB90098012253
:1006D00040000023D0EB020263EBE0730098214658
:1006E0004FEAE074B8EB000061EB0401E9E783F046
:1006F00000435BE781F0004158E72DE9FE4F81EAB6
:10070000030404F0004421F0004100944FF0000B7A
:1007100023F0004350EA01045ED052EA03045BD0A8
:10072000C3F30A54C1F30A552C44A4F2F3340194E0
:10073000A0FB0254C1F3130141F48011C3F313036E
:1007400043F4801301FB024400FB034E840A970A22
:1007500044EA815447EA8357A4FB076802958D0A4F
:1007600005FB07854FEA932C04FB0C542705029DDB
:100770004FEA065847EA1637B5EB08056EEB070C4B
:10078000870E920E47EA811742EA8312A7FB020105
:10079000B6EB0B0164EB00042B0D43EA0C335E183F
:1007A00044EB1C50DA465146E7FB0201C5F3130443
:1007B0004FEA0B3343EA14534FEA0432019C43EAF5
:1007C0000603A4F10C040294009CCDE900B400F0EF
:1007D000F7F803B0BDE8F08F00200146F9E72DE9F6
:1007E000F04D81EA030404F0004B21F0004514466B
:1007F0004FF0000A23F0004150EA050220D054EAED
:1008000001021DD0C5F30A570246C5F31303C1F315
:100810001300C1F30A5640F4801543F48013A7EB8C
:100820000608101BD64608F2FD3873EB050002D30C
:1008300008F1010801E092185B41B8F1000F03DAFA
:1008400000200146BDE8F08D00204FF480110646DF
:1008500084460EE0171B73EB050705D3121B63EBF1
:10086000050306434CEA010C49084FEA3000921890
:100870005B4150EA0107EDD152EA030012D082EA4F
:10088000040083EA0501084305D0101BAB4106D2E2
:100890000122002306E000224FF0004302E06FF047
:1008A000010253101AEB06004CEB085110EB0A0042
:1008B00041EB0B01BDE8F04D00F073B8C1F30A52F3
:1008C000C1F3130140F2FF3341F480119A4202DA7E
:1008D00000200146704740F233439A42A2F233426D
:1008E00002DC524200F03BB800F02AB830B5041EDA
:1008F00071F1000404DB4FF00044404264EB01015D
:10090000141E73F1000405DB1C464FF000435242F5
:1009100063EB0403994208BF904230BD064C074D7B
:1009200006E0E06840F0010394E8070098471034BF
:10093000AC42F6D3FFF768FD784100009841000013
:10094000202A04DB203A00FA02F10020704791408F
:10095000C2F1200320FA03F3194390407047202A84
:1009600004DB203A21FA02F00021704721FA02F359
:10097000D040C2F120029140084319467047202A16
:1009800006DBCB17203A41FA02F043EAE07306E0B7
:1009900041FA02F3D040C2F12002914008431946C7
:1009A000704710B5141E73F1000408DA401C41F1C1
:1009B000000192185B411A4301D120F0010010BDE3
:1009C0002DE9F04D92469B4611B1B1FA81F202E059
:1009D000B0FA80F220329046FFF7B2FF04460F468D
:1009E00040EA0A0041EA0B0153465A46084313D035
:1009F000114653EA010019D0C8F140025046FFF7F2
:100A0000AEFF05460E46504659464246FFF798FF50
:100A1000084305D0012004E020463946BDE8F08DAA
:100A20000020054346EAE0762C4337430A986305E5
:100A3000E40AA0EB08000022FD0A44EA47540A3009
:100A400002D500200146E9E7010510196941DDE9F9
:100A5000084500196941BDE8F04DA2E72DE9F843CA
:100A600000250121484C2E464FF480702B46AC46A1
:100A70004FEA010700F1804202F5C042D2F800803F
:100A8000B8F1010F09D1D4F8048318EA010F04D09A
:100A9000C2F800C012680D430092001D49005B1CA3
:100AA00080B2082BE6D339480168012907D1C0F884
:100AB00000C000680090364845F000450668DFF841
:100AC000D49015F00F0F1CBF4FF00108002417D071
:100AD00018EA050F0FD0A00000F1804101F5C041D8
:100AE000D1F81005D1F81015C0F3042059F82420CE
:100AF000C1F301419047641C4FEA4808082CE7D332
:100B000015F0004F14BF0024BDE8F88309EB040082
:100B100090F95810B1F1FF3F20D090F8581021F013
:100B2000C00009EB000292F9382059F822C0BCF14C
:100B3000000F13D0890907FA00F5820002F1A042E4
:100B4000D2F800373542C3F3014302D0022B02D062
:100B500004E0032B02D1032905D0E047641C062CD6
:100B6000D4D3BDE8F883022B14BF02230323D2F8A9
:100B7000005725F44035C2F80057D2F8005745EA2F
:100B80000343C2F80037E8E7006000407C610040A2
:100B9000100500503CD90020E748D0F80411002986
:100BA00008BF7047F0B500272DED028B83B0C0F869
:100BB000047101240460E14E307A401C3072E04838
:100BC000D0F80011002904BFD0F8041100291DD06D
:100BD000C0F80071C0F80471DA4909680091009A00
:100BE00011F4006F4FF0030102F4805203D0002A89
:100BF00008BF022102E0002A08BF21467172B18AB3
:100C0000718296ED180A86ED170AB472D0F80811B1
:100C1000F2EE048A9FEDCC8A00291CBFC0F808714F
:100C200074715AD1B07A18B1B08A7082B77254E038
:100C3000B6F916000028B4BF002585B23078012827
:100C400008BF45F480451CD0022808BF45F4004584
:100C500017D0032814BF042845F4404511D00021C3
:100C6000E8208DF8044002909DF8040072B69DF8CB
:100C7000040030B1C82002F0F1FC9DF80400002807
:100C8000F8D175823178B6F91600012968D00229A9
:100C900071D0032976D0042904BF96ED140A20EE02
:100CA000280A14D000214FF48A708DF8004001907A
:100CB0009DF8000072B69DF8000030B1C82002F027
:100CC000CDFC9DF800000028F8D1B0EE480A86ED72
:100CD000170A86ED180A708AB082707A3070F0694F
:100CE000032812D9002140F237208DF800400190EE
:100CF0009DF8000072B69DF8000030B1C82002F0E7
:100D0000ADFC9DF800000028F8D1F0698F4B00EB96
:100D100080218F4D01EBC10103EB410355F82010F9
:100D2000728A23F81120491C45F8201042F209402C
:100D3000814212D3002040F241218DF800409DF8FD
:100D40000000019172B69DF8000030B1C82002F099
:100D500085FC9DF800000028F8D1707920BB1AE0CE
:100D600000EE100AD6ED160AB8EEC00A20EE200AF0
:100D7000ADE700E006E000EE100AD6ED150AB8EE89
:100D8000C00A05E000EE100AD6ED140AB8EEC00A5B
:100D900020EE200A9BE796ED170AD6ED0D0AB4EE79
:100DA000E00AF1EE10FA01DBF079E8B3F06945F8FA
:100DB000207000BF96ED170AC0EE280A96ED190ABA
:100DC00030EE800A86ED190A317A0A2933D3D6ED3E
:100DD0000B0AB4EEE00AF1EE10FAD8BFF0EE400ACA
:100DE000C6ED0B0AD6ED0A0AB4EEE00AF1EE10FAEF
:100DF000C8BFF0EE400AC6ED0A0AF089012898BF84
:100E000086ED0C0A0BD900EE900AB8EE601AC0EE1F
:100E1000010A96ED0C0A30EE800A86ED0C0A81423A
:100E200009D386ED090A00E025E086ED0C8AB4704E
:100E300086ED198A3772307B02F060FE002802BF0F
:100E400003B0BDEC028BF0BD4FF49F718DF80040F4
:100E50009DF80000019172B69DF80000002806D0B0
:100E6000C82002F0FBFB9DF800000028F8D103B079
:100E7000BDEC028BF0BDF07A18B10E2002F0DAFD65
:100E8000F7727471F069318A55F82000884291D365
:100E90000E2002F0CFFDF472F06945F820702D4D60
:100EA0003062401CA5FB00214908A1EB81010844E8
:100EB000F061032812D9002140F25A208DF8004039
:100EC00001909DF8000072B69DF8000030B1C82076
:100ED00002F0C4FB9DF800000028F8D11E49F0691B
:100EE000095CE1B1401CA5FB00214908A1EB81018F
:100EF0000844F061032812D900214FF419708DF8CD
:100F0000004001909DF8000072B69DF8000030B1DD
:100F1000C82002F0A3FB9DF800000028F8D17470EF
:100F20007771B07900283FF445AFB7719FED0B0A98
:100F300086ED0D0A3EE70000007000400000002032
:100F4000006000401005005000000000B0000020CC
:100F5000A4000020ABAAAAAA18000020FFFF7F7FF0
:100F60002DE9F0471D4E0446884630781546002886
:100F700008BF00F093FB04EB440006EBC00000F157
:100F80004807866DD0F8549000244E4511D9B868B2
:100F9000841BA54298BF2C4678682246811940469A
:100FA000FFF786FAB8682D1B2644A044B04208BF5C
:100FB0000026A9EB0600854288BF05463DB178684A
:100FC0002A4681194046FFF773FA2C442E44002C20
:100FD00018BF3E612046BDE8F0870000ECED002020
:100FE00070B5084B14460D461B780646002B08BF0B
:100FF00000F054FB224629463046BDE8704000F020
:1010000003B80000ECED00202DE9F0411546284A18
:1010100000EB400002EBC00000F11804C06A38B1D8
:1010200001281ED002283CD000252846BDE8F081CA
:101030002269E06882429DBFA368181A1044101A02
:10104000401EA842F0D3E7688846A068C61BB54298
:1010500019D260682A463844FFF72AFA7819E06006
:10106000E3E72269E06882429DBFA368181A104432
:10107000101A401EA84238BF05468846E768A06897
:10108000C61BAE42E5D8606832463844FFF710FA16
:10109000AF1B08EB06013A466068FFF709FAE76004
:1010A000C3E72A46204600F0C4FB0546BDE7000022
:1010B000ECED00200FB408B504A900916A4603992D
:1010C00000F004F801B05DF814FB00002DE9F04FCA
:1010D000ADF2344D804602A8CDF8180400274FF435
:1010E0008060DFF8C49216460C46CDF820744FF0AD
:1010F000080ACDF82884CDF82474CDF81C0400BF6C
:1011000014F8011B002900F03781252904BF0020B5
:1011100001210BD00DF5836000F06CFBDDF8240499
:101120000028EDDA0DF2344DBDE8F08F2278232A45
:1011300008BF40F008000ED02B2A08BF40F0040082
:1011400009D02D2A08BF40F0010004D0302A08BF82
:1011500040F0020002D1641C0029E7D1002521786B
:10116000A1F130020A2A07D205EB850201EB420108
:10117000A1F13005641CF2E70023CAB22E2A08BF91
:10118000641C0CD12178A1F130020A2A07D203EBAA
:10119000830201EB4201A1F13003641CF2E76C29E8
:1011A00014BF682914F8011BF9D0702973D008DC2A
:1011B000252971D0582970D0632909D0642910D00D
:1011C000D8E073296AD0752969D0782965D0D1E033
:1011D0003068011D316001780DF5836000F00AFB75
:1011E000C8E031680A1D326009680DF58362CDF8E8
:1011F0000C34CDF81024CDF80814CDF814040029CF
:10120000B4BF484208464FF0010B0A2809DB00BF73
:1012100089FB00108110A1EBE0700BF1010B0A2893
:10122000F6DA18465B4588BF83464DB1DDF8080401
:101230000028A4BFDDF8140410F0040F18BF6D1EC1
:10124000DDF8140410F0020F00D09BB1DDF8140497
:1012500010F0010F0ED15DB90CE020216D1EDDF8FC
:10126000100400F0C7FADDF8240400286FDB0DB18C
:10127000AB45F2D3DDF8240400287BDBDDF808045D
:1012800000280DDA4042CDF808042D21DDF81004C5
:1012900000F0B0FA0EE05BE067E03EE047E032E0ED
:1012A000DDF8140410F0040F08D02B21DDF8100431
:1012B00000F0A0FADDF8240400285BDBDDF814045C
:1012C00000F00300022804BFDDF80C0400280ED152
:1012D0005DB90CE030216D1EDDF8100400F08AFAD3
:1012E000DDF82404002845DB0DB1AB45F2D3DDF871
:1012F00014040A22CDE90050DDF80C34DDF808149E
:10130000DDF810042EE031680A1D32600968CDE96D
:1013100000500A220DF5836024E031680A1D326016
:101320000968CDE9005010220DF583601AE030689D
:10133000011D3160D0F8005015F8011B39B10DF5D1
:10134000836000F057FADDF824040028F4DA11E095
:1013500030680823011D31600168CDE900A7102223
:101360000DF5836000F0D0F904E025210DF58360D0
:1013700000F040FA641CD1E6DDF824040028DCBF4C
:101380000DF2344DBDE8F08FDDF8200420B10246A7
:1013900002A94046FFF724FEDDF82014DDF82404FE
:1013A0000844CDF82404BDE6676666660148806897
:1013B0000047000008D900200148C068004700002D
:1013C00008D900202DE9F05F28480027C0F80071F7
:1013D000102227493846FFF7C3FD06003D4608BFE7
:1013E000BDE8F09FDFF888A0224C4FF0020B4FF0D1
:1013F00001080AF1100900BF1AF80500217821B18F
:1014000001290AD0022926D020E0022808BF6760FF
:101410001CD100BF84F8008018E01F2808BF84F8A2
:1014200000B013D003280BD0022808BF67600DD08E
:10143000616809F80100481C00F00F00606005E0D9
:10144000A26812B10C486168904727706D1CB542C4
:10145000D2D3BDE8F09F80F02001606809F8001049
:10146000401C00F00F006060D4E700000040014025
:10147000E6D8002068000020F6D8002070B452485A
:101480005249012400780A1D131D4FF0000C062854
:1014900004BF0D7815F00F0F08D1157805F0F00591
:1014A000302D04BF1D7815F0F00F06D0062804BFBC
:1014B0000D7815F00F0F49D13FE04548016821F044
:1014C0008071016043490320C1F800004FF0804063
:1014D000C0F80CC1C0F810C13F48016841F4700168
:1014E0000160BFF34F8FBFF36F8F4FF01025D5F81A
:1014F0000C023A4910F0010F394A3A4B3A4818BFEA
:101500001C6033D00468002CFCD0D5F80C4224F0C9
:101510000104C5F80C420468002CFCD0C3F800C0DC
:101520000368002BFCD0BFF34F8F086800F4E06025
:1015300010430860BFF34F8FFEE7157805F0F00504
:10154000302D04BF1D7815F0F00FBBD0062804BF66
:10155000087810F00F0FBFD1107800F0F00030289D
:1015600004BF187810F0F00FB6D1AFE7D5F80062DD
:1015700016F0004F06BFD5F8006216F0004F1C6051
:101580001CD00468002CFCD01526C5F80062046845
:10159000002CFCD0C5F804620468002CFCD0C3F811
:1015A00000C00368002BFCD0BFF34F8F086800F425
:1015B000E06010430860BFF34F8FFEE70C490B4813
:1015C000086070BC70470000E00F00F0E40F00F00E
:1015D000FCED00E0A005004088ED00E00CED00E02F
:1015E0000400FA0504E5014000E401400090D00346
:1015F000A00000202DE9F05F0026DFF848A0104D84
:1016000034464FF4A0774FF48038B146AAF1080B66
:1016100007EB840080B2295861B1D5F8042308FA99
:1016200004F10A4206D045F800905BF826205AF8EB
:1016300026109047641C042CEAD3BDE8F09F0000FC
:1016400000800040940000202DE9F05F0126DFF8C3
:1016500048A0104D00244FF4A0774FF48038A146E5
:10166000AAF1080B07EB840080B2295861B1D5F8C4
:10167000042308FA04F10A4206D045F800905BF80A
:1016800026205AF826109047641C042CEAD3BDE8A3
:10169000F09F0000009000409400002010B5124C14
:1016A000022012A12061C4E905011349E1614FF450
:1016B000A25121620021A16261620CA2A264E062D7
:1016C000A4F11002E26410222265A1656165E06563
:1016D0000AA00BA10068C4F80700204600F0EAF851
:1016E0002020A07110BD0000ECED00205465726D4B
:1016F000696E616C000000009CD9002052545400B7
:1017000053454747455200002DE9F84F0126DDE9D2
:101710000A5B9046824699460C4608463746414544
:1017200005D300BFB0FBF8F07F1C4045FAD2B945A5
:1017300088BF1F461BF0010F19D1C5B11BF0020F66
:1017400004D0B9F1000F08BF302000D02020009055
:101750000BE050466D1E009900F04CF8DAF80C00D2
:101760000028B8BFBDE8F88F0DB1AF42F1D3DAF869
:101770000C000028B8BFBDE8F88F00BFB9F1010F19
:1017800096BFB4FBF6F0A9F10109404528BF06FB5E
:1017900008F6F3D2DFF85890B4FBF6F000FB1644DD
:1017A00019F80010504600F025F8DAF80C0000286F
:1017B00003DBB6FBF8F6002EEED11BF0010F14BFD1
:1017C000002DBDE8F88F0EE0202150466D1E00F080
:1017D00011F8DAF80C000028B8BFBDE8F88F002D2A
:1017E00008BFBDE8F88FBD42EED8BDE8F88F000015
:1017F0005C41000010B50446D4E90130421C93421C
:1018000005D323681954A260E068401CE060D4E965
:101810000102824218BF10BD21682069FFF7E0FB7A
:10182000A168884219BF4FF0FF30E0600020A0603F
:1018300010BD2DE9F047C4681746894606464FF0AB
:1018400000083069A0428FBF001B201AB168081A37
:10185000451EB068001BA84298BF0546BD4228BF80
:101860003D4670682A4620444946FEF721FEB0688E
:101870007F1B2C44A844A944A04208BF0024F46064
:10188000002FDED14046BDE8F08700000FB4084BC2
:1018900010B504A902AA039800F0E0F8044602A9D2
:1018A000002000F072FC204610BC5DF814FB000024
:1018B0008B2100000A6802608B88838091F806C043
:1018C00080F806C07047C9B241EA012141EA0141EE
:1018D000016041608160704702E008C8121F08C1C2
:1018E000002AFAD170477047002001E001C1121FA1
:1018F000002AFBD1704700002DE9FF5FDDE90220DF
:10190000010DDDF838B0024318D044F61050A1F2B2
:10191000FF3141430D140F98012820D0A5EB0B0097
:10192000401C5FEA000A4FF00004474EDFF81C91AC
:10193000A046504616D5CAF1000728E00F980124AA
:1019400043A2012808D0002100980F9BC0E9002184
:10195000C0E90243BDE8FF9F6FEA0B01F4E7CBF15A
:101960000000DEE7074612E0F80707D022463346BC
:1019700040464946FEF7C1FE804689462246334628
:1019800010461946FEF7B9FE04460E467F10002F9A
:10199000EAD1DDE90201BAF1000F42464B4602DA14
:1019A000FEF7ABFE01E0FEF71AFF04460E460022EA
:1019B000284BFEF79BFF03D84FF0FF30014607E0AE
:1019C0000022254B20463146FEF7F0FDFEF776FF5C
:1019D000102409E0002C0ADB0A220023FEF7B5FDE3
:1019E000019B30321A55641E50EA0102F2D1641C88
:1019F000019AC4F1110314440F9A012A03D0012261
:101A000008430DD10AE0084304D000204FF0110B29
:101A10000F9080E7A3EB0B056D1E0DE05B4504DD29
:101A20004FF0000205F1010504E003DA4FF0000277
:101A3000A5F10105002AECD000980F99C0E9023108
:101A4000C0E9004586E70000000024400000F03FA8
:101A5000300000000000F0430000E03F2DE9FF4FA0
:101A600095B09B468946064600250FE2252877D18A
:101A700000242746F84A0121059400E0044316F8A3
:101A8000013F203B01FA03F01042F7D130782A28B9
:101A900011D06FF02F033078A0F13002092A16D848
:101AA000059A44F0020402EB820203EB4202104466
:101AB000761C0590EFE759F8042B0592002A03DA0B
:101AC000504244F40054059044F00204761C3078EF
:101AD0002E2816D116F8010F44F004042A280DD040
:101AE0006FF02F023078A0F13003092B09D807EBF3
:101AF000870302EB4303C718761CF3E759F8047B0E
:101B0000761C30786C280FD006DC4C2817D068285B
:101B10000DD06A2814D104E0742810D07A280FD18F
:101B20000DE044F400140AE044F4801401E044F4AD
:101B300040147278824202D104F58014761C761C1F
:101B4000307866280BD013DC582877D009DC0028C1
:101B500075D04528F6D04628F4D047281AD19DE103
:101B600018E0632835D0642879D0652812D195E132
:101B7000702873D008DC6728F1D069286FD06E28F0
:101B80000DD06F2806D1B5E073282CD0752875D0FC
:101B9000782874D05A46179990476D1C75E1C4F3A4
:101BA0000250022809D003280DD0D9F800100428CB
:101BB0000DD00D6009F1040967E1D9F80010EA17AA
:101BC000C1E90052F6E7D9F800100D80F2E70D7078
:101BD000F0E719F8041B8DF8001000208DF80100C3
:101BE000EA46012003E059F804AB4FF0FF306107EB
:101BF0004FF0000102D40DE008F101018846B9421E
:101C00000FDA8045F8DB1AF808100029F4D108E053
:101C100008F1010188468142FADB1AF80810002910
:101C2000F6D105985B46A0EB080721463846179A7F
:101C300000F094FA284400EB080507E04DE029E1A4
:101C40000DE01AF8010B5A4617999047B8F10108B0
:101C5000F7D25B4621463846179A13E142E00A2242
:101C60000092C4F302524FF0000A022A08D059F839
:101C700004CB032A4FEAEC710AD00DE029E02AE0F8
:101C800009F1070121F00702F2E802C1914609E0DB
:101C90000FFA8CFC4FEAEC71042A03D14FFA8CFC4A
:101CA0004FEAEC71002907DA0A460021DCF1000C4A
:101CB00061EB02012D2202E0220504D52B228DF8D2
:101CC0000420012203E0E20701D02022F7E790463A
:101CD00059E00A2102E010220DE010214FF0000A25
:101CE00000910BE010224FF0000A44F00404082792
:101CF000009203E008224FF0000A0092C4F302525F
:101D0000022A05D059F804CB0021032A08D009E0A3
:101D100009F1070121F00702F2E802C1914605E04E
:101D20001FFA8CFC042A01D10CF0FF0C4FF00008C4
:101D3000220728D5702806D0009B83F0100353EAB1
:101D40000A0305D00EE040228DF80420012208E0AD
:101D50005CEA010206D030228DF804208DF80500DF
:101D600002229046009B83F0080353EA0A030AD13B
:101D70005CEA010201D1620705D530228DF804200A
:101D80004FF001087F1E582804D034A003900EA8FD
:101D900002900DE036A0F9E753466046009AFEF740
:101DA000D4FB84460398825C0298401E0290027025
:101DB0005CEA0100F0D1029806A9081A00F1200A95
:101DC000600702D524F4803400E00127574502DD86
:101DD000A7EB0A0000E0002000EB0A010090059844
:101DE0004144401A0590E00306D45B462146179A09
:101DF000059800F0B3F90544002706E001A85A460B
:101E0000C05D179990476D1C7F1C4745F6DBE003CA
:101E10000CD55B462146179A059800F09FF90544BA
:101E200004E030205A46179990476D1C0099481ECF
:101E300000900029F5DC08E0029802995A460078E3
:101E4000491C0291179990476D1CBAF10001AAF143
:101E5000010AF1DC65E1000009280100303132336C
:101E600034353637383961626364656600000000D6
:101E700030313233343536373839414243444546C0
:101E80000000000000F058F90544761C3078002866
:101E90007FF4ECAD19B02846BDE8F08F620700D49E
:101EA000062709F1070222F0070CFCE80223E146AD
:101EB00003F000485FEA080C02D00FF2702C0DE02E
:101EC0005FEA045C02D50FF2682C07E05FEAC47C8D
:101ED00002D00FF2602C01E0AFF2700C4FF0FF382F
:101EE00023F00043CDF850C065280CD006DC45280F
:101EF00009D046281DD047283DD13DE0662818D09E
:101F000067287ED138E00021112F01DB112000E08D
:101F1000781CCDE9000106A90EA8FFF7EDFCDDE96C
:101F20000F010E9A03910021009207F1010A04911A
:101F30004DE04FF000400097CDE9011006A90EA832
:101F4000FFF7DAFCDDE90F0203920E9B11990022E4
:101F5000DDF80CA00093049211B9791C00EB010A82
:101F6000B7EB0A0004D4C0F1FF3007F1010A049076
:101F7000AAEB0700019044E0012F00DA01270021BD
:101F8000112F01DD112000E03846CDE9000106A93E
:101F90000EA8FFF7B1FCDDE90F010E9A03910021B5
:101FA00004910092BA4621070CD40399514500DAF6
:101FB0008A46BAF1010F05DD009AAAF10101515CD0
:101FC000302908D0B84202DA10F1040F06DA0121F4
:101FD000CDE9011015E0AAF10101E9E7002805DCCF
:101FE000049901440491AAEB000102E0411C51450F
:101FF00000DD8A460499401A401C01904FF00040D1
:102000000290200704D40198504501DBCDF80480EC
:1020100000208DF84F0002980DF14F07B0F1004FEE
:1020200025D02B200E9002984FF0020800280CDAE1
:10203000404202902D200E9007E00A210298FEF700
:102040006EFA3031029007F8011DB8F10001A8F1D5
:102050000108F2DC02980028EFD1791E0E98087072
:10206000307800F0200040F0450007F8020D12A87B
:10207000C01B00F107081498007800B1012000EBA4
:102080000A01019801EBE07105984144401A401E95
:102090000590E00306D45B462146179A059800F0A8
:1020A0005DF805441498007818B15A46179990477E
:1020B0006D1CE00324D55B462146179A059800F075
:1020C0004DF805441CE00498002807DBDDE9030116
:1020D000884203DD0098405C179901E01799302091
:1020E0005A469047049805F10105401C0490019858
:1020F000401E019004D12E205A46179990476D1C1E
:10210000BAF10001AAF1010ADDDC05E017F8010BC4
:102110005A46179990476D1CB8F10001A8F10108C3
:10212000F4DC5B462146179A0598ABE62D000000CB
:102130002B000000200000002DE9F041044600259E
:102140001E461746880404D405E039462020B047CF
:102150006D1C641EF9D52846BDE8F0812DE9F041DB
:10216000044600251E469046C80301D5302700E0EE
:102170002027880404D505E041463846B0476D1C49
:10218000641EF9D52846BDE8F0810A68531C0B602F
:102190001070704700B583B001228DF800209DF8C3
:1021A0000000019172B69DF80000002804BF03B042
:1021B00000BDC82001F052FA9DF800000028F8D1B7
:1021C00003B000BD72B602480168491C0160704747
:1021D0009C00002003490868401E086018BF704733
:1021E00062B670479C000020084910B58860084915
:1021F0000320C1F8000707490120C1F804030321A7
:10220000142001F03AFA002010BD00006800002000
:102210002C000050004001402DE9F04385B081467C
:10222000022017460D468DF80800012202A94846F3
:10223000FEF7D6FE0326012818BF8DF8006007D0F0
:10224000012269464846FEF7CBFE0128F8D160E03E
:102250000024002F88BF4FF01F0844D9285D0228B2
:102260001CBF03281F2812D08DF80800012202A9E4
:102270004846FEF7B5FE012832D08DF800600122F5
:1022800069464846FEF7ACFE0128F8D141E08DF8DA
:102290000880012202A94846FEF7A2FE012809D0C3
:1022A0008DF80060012269464846FEF799FE012834
:1022B000F8D12EE0285D012280F020008DF8080082
:1022C00002A94846FEF78CFE012809D08DF800606F
:1022D000012269464846FEF783FE0128F8D118E03E
:1022E000641CBC42BAD38DF80860012202A948469A
:1022F000FEF776FE012811BF8DF80060002005B0C2
:10230000BDE8F083012269464846FEF769FE0128D0
:10231000F8D105B01120BDE8F083000010B5064CDF
:102320002068807800F0C0FC00281CBF012010BD90
:102330000020206010BD000070EE00200149002048
:102340000860704770EE002070B5084D044628689C
:1023500048B944B1A078211D00F082FD002802BFD9
:1023600000202C6070BD012070BD000070EE0020C8
:10237000F7B5164C06461546206820B35EB19DF8A9
:10238000041003884A199A4205D825B101F00F01BB
:102390002944102902D903B00220F0BD807802211F
:1023A00000F0C2FD206801AA0121807800F0C4FD80
:1023B00048B9206832462946807800F067FD002839
:1023C00004BF03B0F0BD012003B0F0BD70EE0020EB
:1023D00070B5184D14462A6812B349B11288031912
:1023E000934205D824B100F00F022244102A01D9EB
:1023F000022070BD28712246681DFEF759F8286832
:102400000121807800F090FD28682A1D611C8078E9
:1024100000F092FD002804BF00204FF6FF7101D0AC
:10242000012070BD00BF401C80B28842FAD300205A
:1024300070BD000070EE002010B5064C206840789A
:1024400000F032FC00281CBF012010BD00202060DD
:1024500010BD000064EE00200149002008607047B4
:1024600064EE002070B5234C0546206828B925B1DC
:102470006878291D00F0F4FC08B1012070BD2560CA
:102480002878102833D2DFE800F0080813131E1E46
:1024900029290D0D181823232D2D8120208141F28B
:1024A000883023E040F20110208141F288301DE0A5
:1024B0008120208142F2107018E040F2011020814A
:1024C00042F2107012E0812020814CF250300DE079
:1024D00040F2011020814CF2503007E08120208131
:1024E000054803E040F201102081034860600020AD
:1024F00070BD000064EE0020A08601002DE9F843C5
:102500001646042828BFFF2204D23DA2126800927A
:102510001DF800203B4FD7F80080B8F1000F6CD0B9
:10252000002E18BFFF2A04D000291CBF0129022950
:1025300002D00220BDE8F88335684B2D34BF4B2410
:102540002C46304BB3F808905B68A9F1010C21B11F
:10255000012910D002291ED036E0A4F14B000CFB5B
:1025600000F0B0FBF3F080B203FB00F1B1FBFCF133
:1025700001F14B0428E0A4F14B000CFB00F000EB50
:102580005300B0FBF3F080B203FB00F1B1FBFCF1B0
:1025900001F14B0418E0A4F14B000CFB00F0B0FB80
:1025A000F3F080B203FB00F1B1FBFCF101F14B044D
:1025B000814588BFA54207D9401C80B203FB00F1CA
:1025C000B1FBFCF101F14B04C0F3012141EA02111E
:1025D0008DF800108DF8010098F80100012100F03D
:1025E000A3FC38686A460221407800F0A5FC002868
:1025F00002BF00203460BDE8F8830120BDE8F88305
:102600000001060764EE0020FFF798BE08B5002021
:102610008DF800000F48FFF797FE18B10EA2DD21DC
:10262000FFF7B8FD01220F216846FFF7A1FE18B1A0
:1026300009A2E021FFF7AEFDFFF770FE18B106A278
:10264000E321FFF7A7FD9DF80000012818BF002037
:1026500008BD00006C4100002E2E5C2E2E5C2E2E3C
:102660005C736F757263655C656570726F6D2E6308
:102670000000000008B500208DF800000F48FFF7AB
:1026800063FE18B10EA2F321FFF784FD01222F2172
:102690006846FFF76DFE18B109A2F621FFF77AFD33
:1026A000FFF73CFE18B106A2F921FFF773FD9DF874
:1026B0000000012818BF002008BD00006C41000088
:1026C0002E2E5C2E2E5C2E2E5C736F757263655CF5
:1026D000656570726F6D2E630000000010B50446D2
:1026E0001848FFF731FE18B117A2B821FFF752FDC5
:1026F000042200212046FFF73BFE18B112A2BB21A5
:10270000FFF748FD04220521201DFFF731FE18B117
:102710000DA2BD21FFF73EFD04220A2104F10800AD
:10272000FFF726FE18B108A2BF21FFF733FDFFF720
:10273000F5FD002808BF10BD03A2BDE81040C2216E
:10274000FFF728BD6C4100002E2E5C2E2E5C2E2E35
:102750005C736F757263655C656570726F6D2E6317
:102760000000000010B504461848FFF7EDFD18B151
:1027700017A2CA21FFF70EFD042220212046FFF7F1
:10278000F7FD18B112A2CD21FFF704FD04221B2191
:10279000201DFFF7EDFD18B10DA2CF21FFF7FAFCC8
:1027A00004222A2104F10800FFF7E2FD18B108A273
:1027B000D121FFF7EFFCFFF7B1FD002808BF10BDE6
:1027C00003A2BDE81040D421FFF7E4BC6C41000037
:1027D0002E2E5C2E2E5C2E2E5C736F757263655CE4
:1027E000656570726F6D2E630000000010B50446C1
:1027F0000E48FFF7A9FD18B10DA2A921FFF7CAFCE9
:10280000022230212046FFF7B3FD18B108A2AC2107
:10281000FFF7C0FCFFF782FD002808BF10BD04A22F
:10282000BDE81040AF21FFF7B5BC00006C410000CF
:102830002E2E5C2E2E5C2E2E5C736F757263655C83
:10284000656570726F6D2E630000000010B5044660
:102850001348FFF779FD18B112A29721FFF79AFCF0
:10286000022234212046FFF783FD18B10DA29A21E0
:10287000FFF790FC02223221A01CFFF779FD18B16E
:1028800008A29C21FFF786FCFFF748FD002808BF3F
:1028900010BD04A2BDE810409F21FFF77BBC0000E3
:1028A0006C4100002E2E5C2E2E5C2E2E5C736F75FC
:1028B0007263655C656570726F6D2E630000000069
:1028C00001B50D48FFF740FD18B10CA26521FFF7D7
:1028D00061FC022269463220FFF77AFD18B107A297
:1028E0006821FFF757FCFFF719FD18B103A26B2110
:1028F000FFF750FC002008BD6C4100002E2E5C2E1E
:102900002E5C2E2E5C736F757263655C65657072EC
:102910006F6D2E630000000001B50D48FFF714FD38
:1029200018B10CA27621FFF735FC0222694634204B
:10293000FFF74EFD18B107A27921FFF72BFCFFF737
:10294000EDFC18B103A27C21FFF724FC002008BD98
:102950006C4100002E2E5C2E2E5C2E2E5C736F754B
:102960007263655C656570726F6D2E6300000000B8
:1029700001B51E482DED040BFFF7E6FC18B11CA2B3
:102980004821FFF707FC042269460020FFF720FDDD
:1029900018B117A24E21FFF7FDFB042201A9052063
:1029A000FFF716FD18B112A25121FFF7F3FB042225
:1029B00002A90A20FFF70CFD18B10DA25421FFF760
:1029C000E9FB012204A90F20FFF702FD18B108A2BC
:1029D0005721FFF7DFFBFFF7A1FC18B104A25A2132
:1029E000FFF7D8FB05B0002000BD00006C410000DF
:1029F0002E2E5C2E2E5C2E2E5C736F757263655CC2
:102A0000656570726F6D2E630000000001B51E4891
:102A10002DED040BFFF798FC18B11CA22221FFF743
:102A2000B9FB042269462020FFF7D2FC18B117A297
:102A30002821FFF7AFFB042201A91B20FFF7C8FCE8
:102A400018B112A22B21FFF7A5FB042202A92A200C
:102A5000FFF7BEFC18B10DA22E21FFF79BFB012250
:102A600004A92F20FFF7B4FC18B108A23121FFF709
:102A700091FBFFF753FC18B104A23421FFF78AFB46
:102A800005B0002000BD00006C4100002E2E5C2E21
:102A90002E5C2E2E5C736F757263655C656570725B
:102AA0006F6D2E630000000001B50D48FFF74CFC70
:102AB00018B10CA28721FFF76DFB02226946302076
:102AC000FFF786FC18B107A28A21FFF763FBFFF727
:102AD00025FC18B103A28D21FFF75CFB002008BD87
:102AE0006C4100002E2E5C2E2E5C2E2E5C736F75BA
:102AF0007263655C656570726F6D2E630000000027
:102B00001C4901280A6805D0022804BF4B79002B14
:102B10001AD001E0087908B1002070471088164BE0
:102B2000C0F38510186010681B1DC0F305301860D5
:102B30001078124A00F03F001060114A0120106026
:102B400008711048886012E01379DFF83CC003F088
:102B50003F03CCF8003092880CF10403C2F38512D5
:102B60001A600A4B05221A6048710948C8600120A2
:102B70007047000008D900200C350040083500409F
:102B800000350040212C0000084500400045004071
:102B9000992C000000210B4A012805D0022804BF0F
:102BA0005079022809D002E01079012801D00020D4
:102BB000704705480160117102E0044801605171DD
:102BC0000120704708D90020003500400045004032
:102BD0001049086008214FF0E0200022C0F8801161
:102BE0000D4B1A6000F1030C60238CF80034C0F820
:102BF0008012C0F800111021C0F88011DFF81CC04D
:102C0000CCF80020021D82F80034C0F88012C0F811
:102C10000011704708D900200035004000450040F1
:102C20001B4830B40168002914BF0123002300248D
:102C3000184900BFD1F80821F2B1D1F81825C1F820
:102C40000841D2B2D0F808C0BCF1000F1CBF057B10
:102C50000CF80520027B521CD2B2027390F80DC012
:102C600062450DD2D0F804C0BCF1000F14BF1CF8AF
:102C700002200022C1F81C25002BDBD030BC70479D
:102C80000168002904BF30BC7047002030BC0847F1
:102C900018D900200030004002494FF0402000F0D9
:102CA00019B8000028D9002010B5012806D102204B
:102CB000FFF770FF00281CBF002010BD032010BDCF
:102CC0000348002101608174417401747047000061
:102CD00028D900202DE9F0030A68002A18BF012234
:102CE0004FF4207500244FF4017602274FF0010CB9
:102CF0000B7C012B02D0022B55D0ABE0D0F81C315D
:102D0000002B3CD0C0F81C410B7B5B1CDBB20B736F
:102D100091F80D8043451CD2C0F800420B7B91F81E
:102D20000D805B1C434538BFC0F800C207D38B7CC5
:102D3000032B12BF012BC0F80441C0F8007291F8B8
:102D40000C804B6813F80830C0F81C35C0F820C060
:102D500080E0C0F80853D0F8002212F0020F03D030
:102D6000D0F80421002AFBD00C740968002904BFA4
:102D7000BDE8F00370470020BDE8F0030847D0F835
:102D80002431002B66D0C0F82441C0F8085303203A
:102D900008740968002904BFBDE8F00370470220E9
:102DA000BDE8F0030847D0F80831E3B3C0F80841A4
:102DB000D0F8183591F80E90D1F8088008F809304D
:102DC0008B7B5B1CDBB28B7391F80F80434515D274
:102DD000C0F800428B7B91F80F805B1C434538BFE5
:102DE000C0F800C207D38B7C032B12BF022BC0F8A4
:102DF0000441C0F80072C0F820C02BE0C0F808639E
:102E0000D0F8002212F0020F04D000BFD0F8042145
:102E1000002AFBD00C740968002904BFBDE8F00348
:102E20007047012000E002E0BDE8F0030847D0F859
:102E300024317BB1C0F82441C0F808630420087431
:102E40000968002904BFBDE8F00370470320BDE80E
:102E5000F0030847002A3FF44BAFBDE8F00370478A
:102E600010B50C4601280BD10220FFF749FE38B1FE
:102E7000044920790860044920680860002010BDDA
:102E8000032010BD884500402445004070B501284E
:102E900045D1244C4FF040200B4694F810C0BCF1B3
:102EA000010F12BFBCF1020F032070BD0021BCF165
:102EB000040F18BFA1734FF0020C84F810C0A26079
:102EC000DBB2E3734FF42172C0F80823C0F8241179
:102ED000C0F81C11C0F80811C0F80012A27B551CE4
:102EE00001229D4238BFC0F8002207D3A37C032BE8
:102EF00012BF022BC0F80411C0F800C2216829B12A
:102F00004FF40171C0F80413026006E0026021462C
:102F1000FFF7E0FE207C042801D0002070BD0220D5
:102F200070BD000028D90020012804BF0148817429
:102F30007047000028D9002010B501284DD1284C39
:102F40004FF040200B4694F810C0BCF1010F12BFA7
:102F5000BCF1020F032010BD0021BCF1030F18BF0C
:102F600021734FF0010C84F810C06260DAB2627312
:102F70004FF42173C0F80833C0F82411C0F81C11B5
:102F8000C0F80811C0F80012237B5B1C934238BFC5
:102F9000C0F800C209D3A27C032A18BF012A04D1B9
:102FA000C0F804110221C0F80012227B6168895C1C
:102FB000C0F81C15216831B14FF42071C0F804131A
:102FC000C0F808C007E0C0F808C02146FFF782FE3D
:102FD000207C032801D0002010BD012010BD00007E
:102FE00028D9002038B5154D2978002904BF0820BC
:102FF00038BD022468801249A0F2E24091FBF0F053
:10300000C0F5F16000F5003000900E48FFF72AFA95
:1030100018B10DA26E21FFF7BDF86A4601212046C6
:10302000FFF76CFA041E03D007A27121FFF7B2F874
:103030000098A860FFF700FA204638BD7400002011
:10304000608E9E04404100002E2E5C2E2E5C2E2EA3
:103050005C736F757263655C6D5F767265672E6316
:103060000000000010B5FFF7F7F9024901200870D1
:1030700010BD000074000020F8B505460F4E40005A
:1030800000903078002804BF0820F8BD0C48FFF7F6
:10309000E9F918B10BA28921FFF77CF86A460121F2
:1030A0000020FFF72BFA041E03D006A28C21FFF7A5
:1030B00071F8FFF7C1F9B5802046F8BD7400002013
:1030C000404100002E2E5C2E2E5C2E2E5C736F7500
:1030D0007263655C6D5F767265672E630000000049
:1030E00038B5400000900C480078002804BF082044
:1030F00038BD0A48FFF7B6F918B109A2A021FFF7B9
:1031000049F801216A460846FFF7F8F90446FFF737
:1031100093F9204638BD00007400002040410000B3
:103120002E2E5C2E2E5C2E2E5C736F757263655C8A
:103130006D5F767265672E6300000000D2B04FF0BD
:10314000000AD948FFF744FDFFF7BAFDFFF75CFA24
:10315000FFF75CFAD54C70B106A8FFF7BFFA0698E6
:10316000A0630798E0630898206406986064079855
:10317000A0640898E064FFF77DFA50B14FF0010AAF
:1031800006A8FFF7EFFA0698A0630798E06308988F
:10319000206405A8FFF75AFB04A8FFF727FBBDF83A
:1031A000101040F6B832A1F5E1634FF6FF70B3F5A9
:1031B000E16F01D8814201D1ADF81020BDF81410A3
:1031C000814204BF4AF6EE41ADF81410BDF8161066
:1031D000814208BFADF81620D4ED0E0A9FEDB40A67
:1031E00020EE801ADFEDB30AC0EE811A9FEDB21A0D
:1031F000B2484FF0030B61EE811AC4ED141AD4EDFE
:103200000F1A21EE802AC0EE821A61EE811AC4EDF7
:10321000151AD4ED101A21EE800AC0EE801A21EEA4
:10322000810A84ED160AC0F800B7A5484FF4806102
:103230000160A449C1F800B7091FC1F800B74FF0F9
:10324000807101604910001F0160C0064FF0010944
:10325000C0F8789006A85A21FEF735FB5A2247217C
:1032600009A8FDF737F9606CFDF746F9074688466F
:10327000A06CFDF741F905460E46E06CFDF73CF900
:1032800041EC100B8DE8E00153EC102B8EA11BA834
:10329000FEF7FCFA4FF08050026E94A109A8FEF7E9
:1032A000F5FA1BAA95A10020FDF704FF09AA93A136
:1032B0000020FDF7FFFEBAF1000F1BD0A06BFDF759
:1032C0001BF907468846E06BFDF716F905460E46E2
:1032D000206CFDF711F941EC100B8DE8E00153EC87
:1032E000102B87A13FA8FEF7D1FA3FAA83A10020A7
:1032F000FDF7E0FEBDF814000090BDF81630BDF8F3
:10330000102088A12DA8FEF7C1FA2DAA7BA10020CC
:10331000FDF7D0FE8A48FEF767FF00F0CFFA88B1CC
:1033200040F2DE318DF800909DF80000019172B6F8
:103330009DF8000030B1C82000F090F99DF8000021
:103340000028F8D100F00EF97E4A00217E4800F0F6
:103350003FFC88B140F2A5118DF800909DF8000067
:10336000019172B69DF8000030B1C82000F076F9E6
:103370009DF800000028F8D13221734800F074FC59
:103380000246012300217048CDF8009000F0FAFBBE
:1033900000F020FE00F0BCFDFFF764FEBDF8100059
:1033A000FFF720FE88B140F2ED318DF800909DF8D6
:1033B0000000019172B69DF8000030B1C82000F005
:1033C0004DF99DF800000028F8D1BDF81400FFF772
:1033D00087FE88B140F2EF318DF800909DF8000033
:1033E000019172B69DF8000030B1C82000F036F9A6
:1033F0009DF800000028F8D1BDF81600FFF73CFE4C
:1034000088B140F2F1318DF800909DF800000191F3
:1034100072B69DF8000030B1C82000F01FF99DF889
:1034200000000028F8D149480068009010F4006FAF
:1034300000F4805004D0002808BF4FF0020B02E0D7
:10344000002808BFCB4684F800B0414800F090FB4C
:1034500040484FF4806101603F4E404F0025607846
:10346000A8B184F80790384800F082FB6570206AA4
:1034700006F80090218A00EB80204A0000EBC00093
:1034800007EB40010020FEF7C7FE206A3554A07804
:1034900000281CBF20790028E1D0A5700422304903
:1034A0000020FEF7B9FEDAE73841000000000020F6
:1034B000000000479A99193F0024744928000050E1
:1034C0000C0500506000005043414C4942524154A9
:1034D00045442052313A252E33662052323A252E69
:1034E00033662052333A252E3366000020426F6146
:1034F0007264204944202558000000002573000014
:103500000A0A55534552205345542052313A252E2C
:1035100033662052323A252E33662052333A252E16
:10352000336600000A52656673205644443A2025EB
:10353000642048493A202564204C4F3A20256400F5
:10354000A13C0000E54000003041000010050050A3
:10355000284100000805005018000020B00000209D
:103560002400002010B53C4886B00022416800913C
:10357000816801910068029069460B2000F02CF9E7
:10358000012488B140F263118DF80C409DF80C00C5
:10359000049172B69DF80C0030B1C82000F05EF8BE
:1035A0009DF80C000028F8D1002269460C2000F09C
:1035B00013F988B14FF4B3718DF80C409DF80C00ED
:1035C000049172B69DF80C0030B1C82000F046F8A6
:1035D0009DF80C000028F8D1002201A90D2000F070
:1035E000FBF888B14FF4B4718DF80C409DF80C00D5
:1035F000049172B69DF80C0030B1C82000F02EF88E
:103600009DF80C000028F8D102A90E2000F086F9E0
:1036100088B14FF4B5718DF80C409DF80C00049101
:1036200072B69DF80C0030B1C82000F017F89DF874
:103630000C000028F8D101210B2000F06BF80121CB
:103640000C2000F067F80D2000F034F80E2000F098
:10365000D7F906B010BD00001C41000001B500986C
:10366000002808BF08BD401E009040F2E730FCF77C
:10367000D1FE00980028F6D108BD4907090E0028A0
:10368000BDBF00F00F0202F1E02282F8141D00F12C
:10369000E022A8BF82F8001400F01F02012191402F
:1036A0004009800000F1E020C0F88012C0F800114D
:1036B000704700001549014491F9381008290EDBC4
:1036C0004FEA800000F1A040D0F8001721F440310B
:1036D000C0F80017D0F80017C0F80017704728BFCF
:1036E00070474FF001024FEA810000F1804000F581
:1036F000C040D0F8103523F00103C0F8103502FAAD
:1037000001F00349C1F80803704700003CD90020CC
:1037100000600040F8B42D4B00251C184FF0010C40
:1037200094F93820082A24DB02EB030191F85010A9
:103730004FEA9111032902D0012906D007E024495C
:1037400009680CFA00F2114201D1022100E00321C4
:10375000800000F1A040D0F8002722F44032C0F8E9
:103760000027D0F8002742EA0141C0F80017F8BC52
:10377000704724BFF8BC70474FF48070960006F184
:10378000804606F5C04600EB8200D6F8107580B280
:1037900047F00107C6F8107500F1804000F5C04001
:1037A000056000680090002904BFF8BC704794F9D8
:1037B000380053F82000002804BFF8BC70470CFA0A
:1037C00002F00449C1F80403F8BC70473CD900205A
:1037D00010050050006000402DE9F001DFF8D8C06E
:1037E00000250CEB0003012493F9383014EBE3734C
:1037F00018BF082511D1CE78002E19BF0023082745
:1038000008230E27BB4207D25CF82340B4F1FF3FE8
:1038100007D05B1CBB42F7D304252846BDE8F00166
:1038200070470CEB00085CB288F838404CF8232055
:10383000002E04BF0CEB030282F85000B4F1FF3FEE
:10384000EAD08B78820002F1A042002B03BF4B78B4
:10385000002646EA8303D2F8003718BF23F002039C
:10386000C2F80037CA78E2B10A78A10001F18041BC
:1038700001F5C041D1F8103523F4F85323F4403357
:10388000C1F810354FF4F85303EA00204FF44033E9
:1038900003EA02421043D1F810251043C1F8100585
:1038A000BBE70CEB0400097890F8502042EA811144
:1038B00080F85010B1E700003CD9002010B5154C3D
:1038C00094F85E0000281CBF082010BD4FF0FF32A6
:1038D000202104F13800FCF7FDFD0020B0F10101CA
:1038E00044F82010082824BF221882F85010401CE9
:1038F000C0B20E28F4D300210620FFF7BEFE064911
:103900004FF00040C1F80403012084F85E0000205D
:1039100010BD00003CD90020006000402DE9F001FE
:10392000344B00251A1892F938C0BCF1FF3F18BF7C
:10393000082516D191F802C0BCF1000F04BFFE2388
:1039400082F8383046D0002701263A465FF0080456
:1039500053F822C0BCF1FF3F07D0521CA242F7D35C
:1039600004252846BDE8F001704703EB00084FFA34
:1039700082FC88F838C043F82270002E04BF1A4435
:1039800082F85000BCF1FF3FEAD04FEA8C0202F10E
:10399000804202F5C0420B784C78D2F810C52CF466
:1039A000F85C2CF4981CC2F810C5D2F810C54FF47E
:1039B000F85606EA00264CEA060C4FF4403606EAB2
:1039C00003434FF4801606EA045423434CEA0303EE
:1039D000C2F810354A7801218140012A0CBF064AFD
:1039E000064A11600321800000F1A040C0F80017D2
:1039F000B7E700003CD90020080500500C05005036
:103A00000B49084490F93800800000F1804101F52D
:103A1000C041D1F8100540F0030040F4F852C1F85D
:103A2000102500BF00BF00BFC1F81005704700009F
:103A30003CD900200649084490F838008006000E62
:103A400000F1804000F5C040012101607047000096
:103A50003CD900202DE9F04781460426134D00246F
:103A6000DFF84C804FF0010AFEF7ACFB0AFA04F7CE
:103A70002F4210D0D8F8040007420CD1D8F8041017
:103A80000AFA04F00843C8F8040089F80040002648
:103A9000FEF7A0FB07E0FEF79DFB26B104F1010055
:103AA000BD43C4B2E0D13046BDE8F087FFFF0F0050
:103AB00080000020002912BF002A0E207047012339
:103AC0008340C3F3130CBCF1000F04BF0720704701
:103AD000DFF824C0DCF804C013EA0C0F04BF082090
:103AE0007047C00000F1804000F5F830C0F81015B4
:103AF000C0F814250020704780000020012101FA41
:103B000000F00103090B05D004494968084204BFCD
:103B1000082070470249086000207047800000209C
:103B200004F501400448017800291CBF8520704736
:103B300001210170002070478000002000684FF4D0
:103B4000A07202EB810110FA81F070474FF4A0726D
:103B500002EB8102036892B24FF0000C43F802C0FE
:103B600000684FF4803202FA01F1C0F80413704784
:103B7000016801220A604079014A0221115470470C
:103B80008800002070B40468DDF80CC040F2011514
:103B9000D4F800628D4026EA0505C4F80052046896
:103BA000D4F800522B43C4F800324FF480338B40DA
:103BB000BCF1000FD0F800C014BFCCF80433CCF82F
:103BC0000833006800EB8100C0F8402570BC7047E6
:103BD0002DE9F041044640791F4F0D461646395CE9
:103BE00000291CBF0820BDE8F081002D04BF1B493F
:103BF00001EBC005E97894F90400FFF73EFD617917
:103C0000174A6868002E42F8210004BF0720BDE86B
:103C1000F0816079134941F8206020686978D0F814
:103C2000042561F30102C0F804252068A978D0F8C2
:103C3000082561F30102C0F8082520682978D0F82A
:103C4000102561F30302C0F8102561790120785432
:103C50000020BDE8F0810000880000204C410000F9
:103C6000940000208C00002000684FF47A42D0F8C5
:103C7000100522FA00F048438008704700680121CF
:103C800041607047006801210160704700684FF48F
:103C90000072D0F8100522FA00F04843400970473E
:103CA000002908BF704710B50178132928BF10BD3F
:103CB000DFE801F0160A171E1625343816163C42A6
:103CC0004E5D7D708AFED2008178407801EB002045
:103CD00000B200EE100A8548B8EEC00A80ED0D0A69
:103CE00010BD8178407801EB00208049C88110BD6B
:103CF0008178407801EB00207C49088210BD8178F2
:103D0000407801EB002000B200EE100A7748012154
:103D1000B8EEC00A80ED0D0A817110BD7349012013
:103D2000087110BD71490020087110BD9FED700A27
:103D30006E4880ED0D0A10BD6E480121C0F80C10D0
:103D4000D0F810110029FBD00021C0F8101110BDCF
:103D50004078012804BF4FF48060674905D00028EF
:103D600006BF4FF48060654910BD086010BD8178C2
:103D7000407801EB002084B26148FFF77FFF2046C6
:103D8000FFF730F95E48FFF77DFF2046BDE81040A1
:103D9000FEF78ABE8178407801EB002084B220468D
:103DA000FFF76AF92046BDE81040FEF789BD81782B
:103DB000407801EB002084B22046FFF791F92046BD
:103DC000BDE81040FEF7A8BD484CD0F801102164B2
:103DD000D0F80510E163D0F80900A063012094ED4C
:103DE000101A00EE901A94ED0E0AFEF7C1FD04229F
:103DF00004F138010020FEF70FFA042204F13C011F
:103E00000020FEF709FA042204F140010020FEF729
:103E100003FA94ED0E0ADFED3B0A9FED3B1A20EE0C
:103E2000200AC1EE001A9FED390A61EE801AC4ED36
:103E3000141AD4ED0F1A21EEA02AC1EE021A61EE77
:103E4000801AC4ED151AD4ED101A61EEA00AC1EE65
:103E5000201A21EE800A36E0244CD0F801102164AB
:103E6000D0F80510E163D0F80900A063012094EDBB
:103E7000101A00EE901A94ED0E0AFEF7C7FDD4ED6D
:103E80000E0A9FED200A20EE801ADFED1F0AC0EE19
:103E9000811A9FED1E1A61EE811AC4ED141AD4ED39
:103EA0000F1A21EE802AC0EE821A61EE811A00E01C
:103EB0000CE0C4ED151AD4ED101A21EE800AC0EE04
:103EC000801A21EE810A84ED160A10BD074CE078B5
:103ED00020B10D20FFF7EEFB002004E001210D20B2
:103EE000FFF718FC0120E07010BD0000000000206A
:103EF000FFFF7F7F00700040080500500C05005058
:103F000028410000000000479A99193F0024744995
:103F100070B401239807224DC0F80030D0F800118A
:103F20000029FBD04FF0000CC0F800C11E491D480D
:103F300008601E4803600224001D04601C49032021
:103F40000860081D04601B4803601C491A4808608B
:103F50001B48C0F800C01B4803601B482E68C360A4
:103F6000D0F810110029FBD0C0F810C117490A6819
:103F7000012AFCD016492E6081F800C44FF0E022DF
:103F80008021C2F88012C2F80011C0F80443036017
:103F9000D0F800110029FBD0C0F800C170BC7047F8
:103FA000407600400007170118750040107500406A
:103FB000F075004030760040160000202C7600405E
:103FC000F87500400075004000700040007400402B
:103FD00007E000E070B584B0FFF7A4FD012488B1CC
:103FE0004FF4BC718DF800409DF80000019172B64D
:103FF0009DF8000030B1C820FFF730FB9DF80000AD
:104000000028F8D1314A00213148FFF7E1FD88B19D
:1040100040F27B118DF800409DF80000019172B6CE
:104020009DF8000030B1C820FFF718FB9DF8000094
:104030000028F8D10D212648FFF728FE024601236B
:10404000002123480094FFF79DFD00212048FFF741
:104050007DFD00211E48FFF771FD06461D4D1E48DF
:10406000FFF7F8FC88B14FF4C4718DF808409DF853
:104070000800039172B69DF8080030B1C820FFF720
:10408000EDFA9DF808000028F8D114482A46314678
:10409000007BFFF70FFD002804BF04B070BD40F2A5
:1040A0008B118DF800409DF80000019172B69DF8CB
:1040B0000000002804BF04B070BDC820FFF7CEFA8E
:1040C0009DF800000028F8D104B070BDE140000068
:1040D00028410000047000400C0000200000002077
:1040E00070470000B0F5A07F18BF70474FF0807098
:1040F00006490968090E11F0010F14BF044905496A
:10410000086005490020C871704700000405005090
:104110000C050050080500500000002003010100BC
:1041200003000001020300010080004008000000BD
:104130000090004009010000D98501009B060000A5
:104140000E010000000068062C00000000000303C0
:104150000000000000000303000000003031323393
:104160003435363738394142434445460001010071
:104170000000680650000000984100000000002088
:10418000A4000000D81800003C420000A400002059
:10419000E4FD0000E818000004000000000000003A
:1041A0000001000100000A00E80300000000000018
:1041B00000000000000000000000000000000000FF
:1041C00000008000FFFF7F7F00000000FFFF7F7F77
:1041D0006666E63F0000E0410000F5436666E63FA4
:1041E0000000E0410000FF4300000000000000006C
:1041F00000000000000000000000000000000000BF
:1042000000000000000000000000000000000000AE
:10421000000000008B5A01000000000000000000B8
:10422000000000000000000000000000000000008E
:0C42300000000000000000000090D0031F
:0400000500000401F2
:00000001FF
